:100000000C943E000C945B000C945B000C945B0021
:100010000C945B000C945B000C945B000C945B00F4
:100020000C945B000C945B000C945B000C9412032A
:100030000C945B000C945B000C945B000C945B00D4
:100040000C945B000C945B000C945B000C945B00C4
:100050000C94B7030C945B000C945B000C945B0055
:100060000C945B000C945B000C945B000C945B00A4
:100070000C945B000C945B000C945B0011241FBE7D
:10008000CFEFD0E1DEBFCDBF11E0A0E0B1E0E8EE00
:10009000F7E002C005900D92AE30B107D9F712E03B
:1000A000AEE0B1E001C01D92AA31B107E1F70E94B4
:1000B0001C030C94F2030C940000EAE7F0E080814A
:1000C0008F7D808380818368808380818B7F808324
:1000D0000895883018F020E030E01AC080937C004A
:1000E00080917A00806480937A0080917A0084FF06
:1000F000FCCF309178002091790080917A00806166
:1001000080937A00922F80E0AC01430F511D9A0139
:10011000C9010895CF93DF930E94B1031816190601
:10012000DCF70E948203883018F0C0E0D0E019C0EC
:1001300080937C0080917A00806480937A00809123
:100140007A0084FFFCCF3091780020917900809173
:100150007A00806180937A00922F80E0EC01C30FD7
:10016000D11D8C2F0E943C038D2F0E943C03DF91F8
:10017000CF9108950E948203882319F40E940301FD
:100180000895813019F40E94FE000895823019F418
:100190000E940E010895833019F40E940D01089504
:1001A000803A59F0813A19F40E948A000895803CFF
:1001B00021F0813C11F0833C19F40E94460208951D
:1001C000863C19F40E94F1020895813D19F40E94C1
:1001D000B5010895823D19F40E94A0010895833D60
:1001E00019F40E9490010895843D19F40E947B0146
:1001F0000895803D11F40E947402089580911801C1
:100200000E943C0308950E94B10318161906DCF7FA
:100210000E948203809318010895089581E08093DD
:100220000E0188EC90E00197F1F78FEF0E943C03FC
:100230000895F8940E94C5010E9459020E9430035B
:100240000E945D000E943001789460E070E080E0E0
:100250000E945D0160E070E081E00E945D01089510
:1002600080EB84B92C9A87E58CBD08952C988EBDBF
:100270000DB407FEFDCF6EBD0DB407FEFDCF2C9A69
:10028000089520E18030920710F08FEF9FE0662301
:1002900019F4292F206B06C0613011F020E002C054
:1002A000292F20692C982EBD0DB407FEFDCF8EBDE1
:1002B0000DB407FEFDCF2C9A0895282F88E06130F9
:1002C00078071CF060E078E00FC088EF60307807B6
:1002D0001CF460E078EF08C077FD06C06115710579
:1002E00019F480E098E003C0CB018050984F622F52
:1002F0000E94410108950E94B10318161906DCF707
:100300000E94820390E026EF3FEF829FB001839F1F
:10031000700D929F700D112481E00E945D0108957F
:100320000E94B10318161906DCF70E9482039AE0B6
:10033000899FC0011124BC0181E00E945D010895E4
:100340000E94B10318161906DCF70E94820390E0A0
:1003500026EF3FEF829FB001839F700D929F700D3B
:10036000112480E00E945D0108950E94B1031816D7
:100370001906DCF70E9482039AE0899FC0011124CC
:10038000BC0180E00E945D01089517B811B88FEF9D
:100390008AB908950F931F930E94B1030397E4F362
:1003A0000E948203082F0E948203182F0E9482035A
:1003B0001134C9F4813059F421B181E090E002C0D8
:1003C000880F991F0A95E2F7282B21B95CC021B14B
:1003D00081E090E002C0880F991F0A95E2F78095AE
:1003E000822381B950C01234C9F4813059F424B148
:1003F00081E090E002C0880F991F0A95E2F7282B50
:1004000024B941C024B181E090E002C0880F991F57
:100410000A95E2F78095822384B935C01334C9F474
:10042000813059F427B181E090E002C0880F991F14
:100430000A95E2F7282B27B926C027B181E090E082
:1004400002C0880F991F0A95E2F78095822387B929
:100450001AC01434C1F4813059F42AB181E090E01B
:1004600002C0880F991F0A95E2F7282B2AB90BC002
:100470002AB181E090E002C0880F991F0A95E2F747
:10048000809582238AB91F910F9108950E94B1032C
:1004900018161906DCF70E94820326B130E002C06C
:1004A000359527958A95E2F7822F81700E943C034B
:1004B000089582EA809380008AE18093810080E23F
:1004C0009EE490938700809386008AB180638AB906
:1004D00083EC95E090938900809388000895909331
:1004E00089008093880008950E94B10318161906A8
:1004F000DCF70E9482039AE0899FC0011124909347
:10050000890080938800089586B1829586958770CA
:1005100081700895882321F4469810921901089556
:10052000813019F4469A80931901089588B1805852
:1005300088B980ED97E00197F1F788B1805888B9C4
:1005400080911901813049F480911001909111013D
:1005500001979093110180931001809119018823D4
:1005600049F480911001909111010196909311012D
:10057000809310010895469A81E08093190102C08A
:100580000E9496023599FCCF109211011092100131
:10059000089587B1806C87B90E94BB0208952091AD
:1005A00010013091110180911201909113012817CF
:1005B0003907B1F080911001909111012091120141
:1005C00030911301821B930B97FF04C04698109241
:1005D000190104C0469A81E0809319010E94960295
:1005E000089580E091E00E944E038BE991E09093A2
:1005F0001301809312010E94B10318161906DCF74B
:100600000E9482038430B9F782E390E09093130153
:1006100080931201089587E08093B10081E0809378
:10062000700008951F920F920FB60F9211240F9031
:100630000FBE0F901F9018950E94190106C00E94CE
:10064000A603882311F00E94BA0080910E0188232E
:10065000B1F30E94A6038823E1F30E94BA00F9CF08
:100660001092C50089E18093C40088E98093C1009D
:100670008EE08093C2000895982F8091C00085FF7E
:10068000FCCF9093C60008959091C6008091C00061
:1006900085FFFCCF9093C600892F0895FC0107C009
:1006A0008091C00085FFFCCF9093C6003196908169
:1006B0009923B1F70895282F809114019091150185
:1006C00001969093150180931401809116019091E9
:1006D00017010196909317018093160180911401E0
:1006E000909115018F3F910529F024F0109215018A
:1006F00010921401E0911401F0911501E65EFE4F95
:1007000020830895E0911401F0911501E65EFE4FFB
:10071000E0818091140190911501892B19F48FEFDC
:1007200090E005C08091140190911501019790937C
:100730001501809314018091160190911701019782
:1007400090931701809316018E2F089580911601C2
:100750009091170120E0181619060CF421E0822F61
:1007600008952091160130911701C90108951F9233
:100770000F920FB60F9211242F938F939F93EF93A5
:10078000FF932091C600809114019091150101966C
:100790009093150180931401809116019091170197
:1007A0000196909317018093160180911401909106
:1007B00015018F3F910529F024F010921501109238
:1007C0001401E0911401F0911501E65EFE4F2083C3
:1007D000FF91EF919F918F912F910F900FBE0F90EE
:0807E0001F901895F894FFCF5B
:0E07E800456E746572656420312E0D0A0000A6
:00000001FF
